{
  "contractName": "Test",
  "abi": [
    {
      "constant": true,
      "inputs": [],
      "name": "owner",
      "outputs": [
        {
          "name": "",
          "type": "address"
        }
      ],
      "payable": false,
      "stateMutability": "view",
      "type": "function",
      "signature": "0x8da5cb5b"
    },
    {
      "inputs": [],
      "payable": false,
      "stateMutability": "nonpayable",
      "type": "constructor",
      "signature": "constructor"
    },
    {
      "constant": false,
      "inputs": [
        {
          "name": "x",
          "type": "uint256"
        }
      ],
      "name": "set",
      "outputs": [],
      "payable": false,
      "stateMutability": "nonpayable",
      "type": "function",
      "signature": "0x60fe47b1"
    },
    {
      "constant": true,
      "inputs": [],
      "name": "get",
      "outputs": [
        {
          "name": "",
          "type": "uint256"
        }
      ],
      "payable": false,
      "stateMutability": "view",
      "type": "function",
      "signature": "0x6d4ce63c"
    },
    {
      "constant": true,
      "inputs": [],
      "name": "getData",
      "outputs": [
        {
          "name": "",
          "type": "uint256"
        }
      ],
      "payable": false,
      "stateMutability": "view",
      "type": "function",
      "signature": "0x3bc5de30"
    }
  ],
  "bytecode": "0x6080604052607b60015534801561001557600080fd5b5033600260006101000a81548173ffffffffffffffffffffffffffffffffffffffff021916908373ffffffffffffffffffffffffffffffffffffffff1602179055506101be806100666000396000f3fe608060405260043610610062576000357c0100000000000000000000000000000000000000000000000000000000900463ffffffff1680633bc5de301461006757806360fe47b1146100925780636d4ce63c146100cd5780638da5cb5b146100f8575b600080fd5b34801561007357600080fd5b5061007c61014f565b6040518082815260200191505060405180910390f35b34801561009e57600080fd5b506100cb600480360360208110156100b557600080fd5b8101908080359060200190929190505050610159565b005b3480156100d957600080fd5b506100e2610163565b6040518082815260200191505060405180910390f35b34801561010457600080fd5b5061010d61016c565b604051808273ffffffffffffffffffffffffffffffffffffffff1673ffffffffffffffffffffffffffffffffffffffff16815260200191505060405180910390f35b6000600154905090565b8060008190555050565b60008054905090565b600260009054906101000a900473ffffffffffffffffffffffffffffffffffffffff168156fea165627a7a72305820265cb55f6cbaf0fe6de04ce057c348252e91e169cc001d6513287941d680c9160029",
  "source": "pragma solidity >=0.4.21 <0.6.0;\n\ncontract Test {\n  uint myVariable;\n  uint abc = 123;\n  address public owner;\n\n  constructor() public {\n    owner = msg.sender;\n  }\n\n  function set(uint x) public {\n      myVariable = x;\n  }\n\n  function get() public view returns (uint) {\n      return myVariable;\n  }\n\n  function getData() public view returns (uint) {\n      return abc;\n  }\n\n}\n",
  "sourcePath": "/Users/isnotnull/Documents/Dapp/Test1/contracts/Test.sol",
  "compiler": {
    "name": "solc",
    "version": "0.5.0+commit.1d4f565a.Emscripten.clang"
  },
  "schemaVersion": "3.0.2",
  "updatedAt": "2019-03-18T05:11:47.983Z",
  "devdoc": {
    "methods": {}
  },
  "userdoc": {
    "methods": {}
  }
}